{
  "_format": "hh-sol-artifact-1",
  "contractName": "TodoContract",
  "sourceName": "contracts/TodoContract.sol",
  "abi": [
    {
      "inputs": [],
      "stateMutability": "nonpayable",
      "type": "constructor"
    },
    {
      "anonymous": false,
      "inputs": [
        {
          "indexed": true,
          "internalType": "uint256",
          "name": "id",
          "type": "uint256"
        }
      ],
      "name": "TaskCompleted",
      "type": "event"
    },
    {
      "anonymous": false,
      "inputs": [
        {
          "indexed": true,
          "internalType": "uint256",
          "name": "id",
          "type": "uint256"
        }
      ],
      "name": "TaskDeleted",
      "type": "event"
    },
    {
      "inputs": [
        {
          "internalType": "string",
          "name": "task",
          "type": "string"
        }
      ],
      "name": "addTask",
      "outputs": [],
      "stateMutability": "nonpayable",
      "type": "function"
    },
    {
      "inputs": [
        {
          "internalType": "uint256",
          "name": "id",
          "type": "uint256"
        }
      ],
      "name": "completeTask",
      "outputs": [],
      "stateMutability": "nonpayable",
      "type": "function"
    },
    {
      "inputs": [],
      "name": "count",
      "outputs": [
        {
          "internalType": "uint256",
          "name": "",
          "type": "uint256"
        }
      ],
      "stateMutability": "view",
      "type": "function"
    },
    {
      "inputs": [
        {
          "internalType": "uint256",
          "name": "id",
          "type": "uint256"
        }
      ],
      "name": "deleteTask",
      "outputs": [],
      "stateMutability": "nonpayable",
      "type": "function"
    },
    {
      "inputs": [],
      "name": "getMyTodos",
      "outputs": [
        {
          "components": [
            {
              "internalType": "string",
              "name": "task",
              "type": "string"
            },
            {
              "internalType": "bool",
              "name": "isCompleted",
              "type": "bool"
            },
            {
              "internalType": "bool",
              "name": "isDeleted",
              "type": "bool"
            }
          ],
          "internalType": "struct TodoContract.TodoItem[]",
          "name": "",
          "type": "tuple[]"
        }
      ],
      "stateMutability": "view",
      "type": "function"
    },
    {
      "inputs": [
        {
          "internalType": "uint256",
          "name": "",
          "type": "uint256"
        }
      ],
      "name": "list",
      "outputs": [
        {
          "internalType": "string",
          "name": "task",
          "type": "string"
        },
        {
          "internalType": "bool",
          "name": "isCompleted",
          "type": "bool"
        },
        {
          "internalType": "bool",
          "name": "isDeleted",
          "type": "bool"
        }
      ],
      "stateMutability": "view",
      "type": "function"
    },
    {
      "inputs": [],
      "name": "owner",
      "outputs": [
        {
          "internalType": "address",
          "name": "",
          "type": "address"
        }
      ],
      "stateMutability": "view",
      "type": "function"
    }
  ],
  "bytecode": "0x6080604052600060015534801561001557600080fd5b5033600260006101000a81548173ffffffffffffffffffffffffffffffffffffffff021916908373ffffffffffffffffffffffffffffffffffffffff160217905550611026806100666000396000f3fe608060405234801561001057600080fd5b506004361061007d5760003560e01c8063672385621161005b57806367238562146100da57806380c9419e146100f65780638da5cb5b14610128578063e1e29558146101465761007d565b806306661abd1461008257806345cd4759146100a0578063560f3192146100be575b600080fd5b61008a610162565b60405161009791906107cf565b60405180910390f35b6100a8610168565b6040516100b591906109a7565b60405180910390f35b6100d860048036038101906100d391906109ff565b6102ef565b005b6100f460048036038101906100ef9190610a91565b610405565b005b610110600480360381019061010b91906109ff565b610589565b60405161011f93929190610b37565b60405180910390f35b610130610655565b60405161013d9190610bb6565b60405180910390f35b610160600480360381019061015b91906109ff565b61067b565b005b60015481565b6060600060015467ffffffffffffffff81111561018857610187610bd1565b5b6040519080825280602002602001820160405280156101c157816020015b6101ae610791565b8152602001906001900390816101a65790505b50905060005b6001548110156102e7576000808281526020019081526020016000206040518060600160405290816000820180546101fe90610c2f565b80601f016020809104026020016040519081016040528092919081815260200182805461022a90610c2f565b80156102775780601f1061024c57610100808354040283529160200191610277565b820191906000526020600020905b81548152906001019060200180831161025a57829003601f168201915b505050505081526020016001820160009054906101000a900460ff161515151581526020016001820160019054906101000a900460ff1615151515815250508282815181106102c9576102c8610c60565b5b602002602001018190525080806102df90610cbe565b9150506101c7565b508091505090565b3373ffffffffffffffffffffffffffffffffffffffff16600260009054906101000a900473ffffffffffffffffffffffffffffffffffffffff1673ffffffffffffffffffffffffffffffffffffffff161461037f576040517f08c379a000000000000000000000000000000000000000000000000000000000815260040161037690610d52565b60405180910390fd5b60008082815260200190815260200160002060010160019054906101000a900460ff1661040257600160008083815260200190815260200160002060010160016101000a81548160ff021916908315150217905550807fd078b251d950cc55c44340be1db732337ef4939a76e1367ee271ad2cb19c46af60405160405180910390a25b50565b3373ffffffffffffffffffffffffffffffffffffffff16600260009054906101000a900473ffffffffffffffffffffffffffffffffffffffff1673ffffffffffffffffffffffffffffffffffffffff1614610495576040517f08c379a000000000000000000000000000000000000000000000000000000000815260040161048c90610d52565b60405180910390fd5b6000604051806060016040528084848080601f016020809104026020016040519081016040528093929190818152602001838380828437600081840152601f19601f82011690508083019250505050505050815260200160001515815260200160001515815250905080600080600154815260200190815260200160002060008201518160000190816105289190610f1e565b5060208201518160010160006101000a81548160ff02191690831515021790555060408201518160010160016101000a81548160ff0219169083151502179055509050506001600081548092919061057f90610cbe565b9190505550505050565b60006020528060005260406000206000915090508060000180546105ac90610c2f565b80601f01602080910402602001604051908101604052809291908181526020018280546105d890610c2f565b80156106255780601f106105fa57610100808354040283529160200191610625565b820191906000526020600020905b81548152906001019060200180831161060857829003601f168201915b5050505050908060010160009054906101000a900460ff16908060010160019054906101000a900460ff16905083565b600260009054906101000a900473ffffffffffffffffffffffffffffffffffffffff1681565b3373ffffffffffffffffffffffffffffffffffffffff16600260009054906101000a900473ffffffffffffffffffffffffffffffffffffffff1673ffffffffffffffffffffffffffffffffffffffff161461070b576040517f08c379a000000000000000000000000000000000000000000000000000000000815260040161070290610d52565b60405180910390fd5b60008082815260200190815260200160002060010160009054906101000a900460ff1661078e57600160008083815260200190815260200160002060010160006101000a81548160ff021916908315150217905550807fc1fa7142cfb933d0855114a3bffde296944c30b727f297c14d0db4d553d3a5c760405160405180910390a25b50565b6040518060600160405280606081526020016000151581526020016000151581525090565b6000819050919050565b6107c9816107b6565b82525050565b60006020820190506107e460008301846107c0565b92915050565b600081519050919050565b600082825260208201905092915050565b6000819050602082019050919050565b600081519050919050565b600082825260208201905092915050565b60005b83811015610850578082015181840152602081019050610835565b60008484015250505050565b6000601f19601f8301169050919050565b600061087882610816565b6108828185610821565b9350610892818560208601610832565b61089b8161085c565b840191505092915050565b60008115159050919050565b6108bb816108a6565b82525050565b600060608301600083015184820360008601526108de828261086d565b91505060208301516108f360208601826108b2565b50604083015161090660408601826108b2565b508091505092915050565b600061091d83836108c1565b905092915050565b6000602082019050919050565b600061093d826107ea565b61094781856107f5565b93508360208202850161095985610806565b8060005b8581101561099557848403895281516109768582610911565b945061098183610925565b925060208a0199505060018101905061095d565b50829750879550505050505092915050565b600060208201905081810360008301526109c18184610932565b905092915050565b600080fd5b600080fd5b6109dc816107b6565b81146109e757600080fd5b50565b6000813590506109f9816109d3565b92915050565b600060208284031215610a1557610a146109c9565b5b6000610a23848285016109ea565b91505092915050565b600080fd5b600080fd5b600080fd5b60008083601f840112610a5157610a50610a2c565b5b8235905067ffffffffffffffff811115610a6e57610a6d610a31565b5b602083019150836001820283011115610a8a57610a89610a36565b5b9250929050565b60008060208385031215610aa857610aa76109c9565b5b600083013567ffffffffffffffff811115610ac657610ac56109ce565b5b610ad285828601610a3b565b92509250509250929050565b600082825260208201905092915050565b6000610afa82610816565b610b048185610ade565b9350610b14818560208601610832565b610b1d8161085c565b840191505092915050565b610b31816108a6565b82525050565b60006060820190508181036000830152610b518186610aef565b9050610b606020830185610b28565b610b6d6040830184610b28565b949350505050565b600073ffffffffffffffffffffffffffffffffffffffff82169050919050565b6000610ba082610b75565b9050919050565b610bb081610b95565b82525050565b6000602082019050610bcb6000830184610ba7565b92915050565b7f4e487b7100000000000000000000000000000000000000000000000000000000600052604160045260246000fd5b7f4e487b7100000000000000000000000000000000000000000000000000000000600052602260045260246000fd5b60006002820490506001821680610c4757607f821691505b602082108103610c5a57610c59610c00565b5b50919050565b7f4e487b7100000000000000000000000000000000000000000000000000000000600052603260045260246000fd5b7f4e487b7100000000000000000000000000000000000000000000000000000000600052601160045260246000fd5b6000610cc9826107b6565b91507fffffffffffffffffffffffffffffffffffffffffffffffffffffffffffffffff8203610cfb57610cfa610c8f565b5b600182019050919050565b7f4f6e6c79206f776e65722063616e2063616c6c20746869730000000000000000600082015250565b6000610d3c601883610ade565b9150610d4782610d06565b602082019050919050565b60006020820190508181036000830152610d6b81610d2f565b9050919050565b60008190508160005260206000209050919050565b60006020601f8301049050919050565b600082821b905092915050565b600060088302610dd47fffffffffffffffffffffffffffffffffffffffffffffffffffffffffffffffff82610d97565b610dde8683610d97565b95508019841693508086168417925050509392505050565b6000819050919050565b6000610e1b610e16610e11846107b6565b610df6565b6107b6565b9050919050565b6000819050919050565b610e3583610e00565b610e49610e4182610e22565b848454610da4565b825550505050565b600090565b610e5e610e51565b610e69818484610e2c565b505050565b5b81811015610e8d57610e82600082610e56565b600181019050610e6f565b5050565b601f821115610ed257610ea381610d72565b610eac84610d87565b81016020851015610ebb578190505b610ecf610ec785610d87565b830182610e6e565b50505b505050565b600082821c905092915050565b6000610ef560001984600802610ed7565b1980831691505092915050565b6000610f0e8383610ee4565b9150826002028217905092915050565b610f2782610816565b67ffffffffffffffff811115610f4057610f3f610bd1565b5b610f4a8254610c2f565b610f55828285610e91565b600060209050601f831160018114610f885760008415610f76578287015190505b610f808582610f02565b865550610fe8565b601f198416610f9686610d72565b60005b82811015610fbe57848901518255600182019150602085019450602081019050610f99565b86831015610fdb5784890151610fd7601f891682610ee4565b8355505b6001600288020188555050505b50505050505056fea26469706673582212205ea64377a7f24ac4469ffaafeaa5f34b7c5d6cb67362aeadda7b9dde4c65ce3364736f6c63430008110033",
  "linkReferences": {},
  "deployedLinkReferences": {}
}